:100000000C948C020C94D5020C94D5020C94D5025D
:100010000C94D5020C94D5020C94D5020C94D50204
:100020000C94D5020C94D5020C942B210C94FE2137
:100030000C94DB1B0C94D5020C94D5020C94D502C5
:100040000C94D5020C94D5020C94D5020C94D502D4
:100050000C94D5020C94431C0C94D5020C94D5023C
:100060000C94D5020C94D5020C94D5020C94D502B4
:100070000C94D5020C94D5020C94D5020C94D502A4
:100080000C94D5020C94D5020C94D5020C94D50294
:100090000C94D5020C94D5020C94D5020C94D50284
:1000A0000C94D5020C94D5020C94D5020763423609
:1000B000B79BD8A71A39685618AEBAAB558C1D3CF9
:1000C000B7CC5763BD6DEDFD753EF6177231BF00BD
:1000D0000000803F05A84CCDB2D44EB93836A902F5
:1000E0000C50B9918688083CA6AAAA2ABE00000036
:1000F000803F14001A000800150017001C001800AB
:100100000C00120013002A0004001600070009006A
:100110000A000B000D000E000F0033000353E10036
:100120001D001B000600190005001100100034001E
:10013000380028002B002900E000E20036002C41A6
:100140002C4200003700E30000003B003C003D0073
:100150003E003F0040004100420043004400450093
:100160001E001F0020002100220023002400250083
:1001700026002700010001004600010001000100E7
:1001800001000100010001000100010001003A002E
:100190000100005C010001000100000001000100FD
:1001A00000002F0030002F023002310231002E02F9
:1001B0002D022D002E004C001E021F0220022102E3
:1001C0002202230224022502260227020100010046
:1001D000C000C05C0100010001000100C65CC85CF9
:1001E00001000100010035000100C15CC35C010099
:1001F00001000000C55CC75C0000010001000100B7
:100200000100010001000100010052000100010095
:100210000100010001000100010001000100500087
:1002200051004F0001000100010001000100010028
:1002300001000100010001000100010001000100B6
:1002400001000100010001000100000001000100A7
:100250000000010001000100010001000100010097
:100260000100010001000100010001000100010086
:100270000100010001000100010001000100010076
:100280000100010001000100010001000000000068
:100290000100010001000100010000000000010058
:1002A000C10000000000000000006801F000B40080
:1002B00078005A007F3F1F643214643214783C1E69
:1002C0001E140A05000000000001010101010101E6
:1002D00001010202020202020202020303030303FB
:1002E00003030304040404040405050505050606C8
:1002F00006060607070707080808080909090A0A81
:100300000A0A0B0B0B0C0C0C0D0D0D0E0E0F0F0F24
:1003100010101111111212131314141515161617AB
:1003200017181819191A1A1B1C1C1D1D1E1F1F2017
:10033000202122222324252526272728292A2B2B62
:100340002C2D2E2F2F303132333435363637383985
:100350003A3B3C3D3E3F4041424344464748494A80
:100360004B4C4D4F50515253555657585A5B5C5E4B
:100370005F606263646667696A6C6D6E70717374E6
:100380007678797B7C7E8081838486888A8B8D8F4A
:1003900091929496989A9B9D9FA1A3A5A7A9ABAD76
:1003A000AFB1B3B5B7B9BBBDBFC1C4C6C8CACCCF66
:1003B000D1D3D6D8DADCDFE1E4E6E8EBEDF0F2F514
:1003C000F7FAFCFF0403300000002603540061002C
:1003D0006E0075006B006900200050004300420071
:1003E0002000760065007200730069006F006E00E7
:1003F00000000A0353006500740068000000040355
:10040000090409025400030100A0FA0904000001D4
:1004100003010100092111010001224000070581AB
:100420000308000A0904010001030000000921116A
:100430000100012236000705820308000A090402B0
:100440000001030000000921110100012239000709
:100450000583032000011201100100000008EDFED9
:10046000646401000102030105010906A1010507F9
:1004700019E029E715002501950875018102050895
:1004800019012905950575019102950175039101E1
:100490000507190029F71500250195F87501810256
:1004A000C005010980A10185021601002603001A7A
:1004B00081002A8300751095018100C0050C090197
:1004C000A1018503160100269C021A01002A9C0244
:1004D000751095018100C005010906A101050719E4
:1004E000E029E71500250195087501810295017540
:1004F00008810105081901290595057501910295E5
:1005000001750391010507190029FF150026FF0059
:10051000950675088100C00011241FBECFEFDAE0F8
:10052000DEBFCDBF04B603FE29C080913502909195
:100530003602A0913702B09138028730904BA74025
:10054000B04BE1F41092350210923602109237024D
:100550001092380214BE84B7877F84BF0FB6F89418
:10056000A89580916000886180936000109260007F
:100570000FBEE0912402F0912502099411E0A0E061
:10058000B1E0E6EEFEE402C005900D92AE32B10796
:10059000D9F722E0AEE2B1E001C01D92A533B20767
:1005A000E1F70E94581E0C9471270C9400000895E6
:1005B0009091000181E089270895809100018823AE
:1005C000A9F08091B7019091B801A091B901B091C3
:1005D000BA010097A105B10551F480912F019091C6
:1005E00030014FEF6AE0019709F440C0089582306E
:1005F0009105A105B10589F480912F0190913001F9
:100600000197A1F74FEF6FEF80EA90E00E943A0B5D
:100610001092300110922F01089584309105A105A8
:10062000B105B9F480912F01909130010197F1F655
:1006300084E190E0A0E0B0E08093B7019093B8012E
:10064000A093B901B093BA014FEF6FEF84EB90E044
:10065000DDCF88309105A105B10559F480912F01B6
:1006600090913001019711F64FEF64EB90E080E03C
:10067000CDCF4497A105B10509F0B8CF80912E01E7
:10068000882309F4B3CF10922E011092B701109273
:10069000B8011092B9011092BA014FEF6AE090E0F0
:1006A00080E00C943A0B21E030E03093300120934D
:1006B0002F01803C9105E9F4FB018281882321F11F
:1006C0000E94D802809300010E940F0D81E00E94D9
:1006D000810C4FEF6FEF90E080E00E943A0B109298
:1006E000B7011092B8011092B9011092BA0180E0DE
:1006F0000895813C910541F4FB018281811105C07F
:1007000081E080932E01089581E0089581E00895AD
:100710000C9453030E94EB142FEF84E39CE02150D0
:1007200080409040E1F700C000000C94691C0F93DA
:100730001F93CF93DF938C01FC01C081D181CE0147
:100740000E94D819BE010E944706EC01B8010E9420
:100750008803882309F4FFC0B801CE010E94AB08CA
:10076000882309F4F8C0C83CFCE5DF0709F42AC176
:1007700008F059C0C13C9CE5D90709F4FCC070F5EC
:10078000C531FCE5DF07D0F4C2308CE5D80708F0AE
:1007900093C1C1159CE5D90709F4D8C0C130DC4527
:1007A00009F4DFC081E08093360180933701C801EE
:1007B000DF91CF911F910F910C948603C531FCE519
:1007C000DF0709F437C2C03CDC4561F7F8018281DC
:1007D000882309F4C0C00E94430DBDC0C43C9CE501
:1007E000D90709F4DEC080F4C23CFCE5DF0709F458
:1007F000CDC0C33CDC45B1F6F8018281882309F401
:10080000AAC00E94EA0BA7C0F8018281C63CFCE5A1
:10081000DF0709F4D2C008F4CBC0882309F49BC0D9
:100820000E94510C98C0CF3CECE5DE0709F417C1DB
:1008300008F042C0CB3C8CE5D80709F4D3C0F8F4EB
:10084000C93CECE5DE0709F4C4C0CA3CDC4509F04C
:10085000A9CFF8018281882309F47DC00E94BB0AD8
:10086000623071058105910540F00E94BB0A653038
:1008700071058105910508F491C082E0B0C0F801CE
:100880008281CD3CFCE5DF0709F4D5C008F4BFC088
:10089000882309F460C00E94BB0A65317105810597
:1008A000910540F00E94BB0A6731710581059105F1
:1008B00008F474C085E193C0C23DECE5DE0709F49D
:1008C00096C1D0F4C03D8CE5D80709F4CFC0C13D36
:1008D000DC4509F067CFF8018281882309F470C1F3
:1008E000109236010E940D1C9093330180933201C7
:1008F00082E00E945C122FC0C63DECE5DE0709F4E1
:10090000CBC0C73DFCE5DF0709F4CFC0C33DDC45E4
:1009100009F048CFF801828181116DC180913701C2
:10092000811186C180913401909135010E94191C7A
:10093000883C910508F07CC180E20E94631288E245
:100940000E94161188E20E940D1205C0F8018281F2
:1009500081110E948A0380E0DF91CF911F910F9156
:100960000895F80182818823B1F38091E4018160C8
:100970008093E401F0CFF8018281882361F30E9423
:100980009E1A827259F00E94060DE5CFF80182810D
:10099000882309F30E949E1A8272A9F30E94FC0C1C
:1009A000DACFF80182818823B1F20E94020CD3CF02
:1009B000882389F20E94210CCECF882361F20E9405
:1009C000390CC9CFF8018281882329F20E94690C71
:1009D000C2CFF8018281882309F4BDCF81E00E9453
:1009E000810CB9CFF8018281882309F4B4CF0E9429
:1009F000BB0A663071058105910538F00E94BB0A7B
:100A0000683071058105910548F286E0E8CF8823BA
:100A100009F4A1CF0E94BB0A6930710581059105D7
:100A200040F00E94BB0A6E3071058105910508F403
:100A3000B5CF89E0D4CF882309F48DCF0E94BB0ABB
:100A40006F3071058105910540F00E94BB0A643149
:100A500071058105910508F4A1CF8FE0C0CFF801A1
:100A60008281882309F477CF88E1B9CFF8018281A8
:100A7000882309F470CF0E94BB0A69317105810592
:100A8000910540F00E94BB0A623271058105910513
:100A900008F484CF89E1A3CFF8018281882309F487
:100AA0005ACF80E00E94F31E56CFF801828188233E
:100AB00009F451CF82E0F6CFF8018281882309F44E
:100AC00076CE0E94FB1A811102C00E94DA1A0E949F
:100AD0000E1B90E09093270280932602FE01E350C4
:100AE000FC45809126028160E231F105C8F4E558A9
:100AF000FA4F0C9423278D0599059D05A105A505A1
:100B0000A905AD05B105B505B905BD05C105C50505
:100B1000C905CD05D105D505D9058091260282608C
:100B200080932602809126020E94121B0E94EB14E1
:100B300012CF809126028460F3CF809126028860D4
:100B4000EFCF809126028061EBCF809126028062F8
:100B5000E7CF809126028064E3CF809126028068EF
:100B6000DFCF809126028460EACF809126028E7FBB
:100B7000D7CF809126028D7FD3CF809126028B7FA5
:100B8000CFCF80912602877FCBCF809126028F7EA8
:100B9000C7CF809126028F7DC3CF809126028F7BA5
:100BA000BFCF809126028F77BBCF809126028B7FAB
:100BB000EACF90912602892F97FB87F98058B0CF12
:100BC0008091360181110FC08091320190913301E3
:100BD0000E94191C883C910530F486E20E9416118F
:100BE00086E20E940D1282E00E946312B4CEF801E8
:100BF0008281882351F0109237010E940D1C90933E
:100C000035018093340180E274CE809137018111E7
:100C10000FC080913401909135010E94191C883CCD
:100C2000910530F487E20E94161187E20E940D12AE
:100C300080E2DACF0E949E1AF8019281992381F016
:100C40008A7A91E009F490E090933101811106C015
:100C500089E20E94271A0E946B1A7DCE85E3F9CFA4
:100C600080913101811104C089E20E942E1AF3CFD4
:100C700085E3FBCF0C94D7020C94DD0208950C940D
:100C80003E060C943F0690E080E008950895972F6B
:100C900070E02BE0929F600D711D1124FB019CE21E
:100CA000899FE00DF11D1124EE0FFF1FEE50FF4F45
:100CB000859194910895FC01EE0FFF1FE655FD4FBD
:100CC000859194910895CF93DF930E9447060E94E7
:100CD0000708EC018115904508F043C0C11580E478
:100CE000D80708F00AC1C83ED10528F5C03ED10595
:100CF00008F09EC0C83AD10580F4C53AD10508F085
:100D00008DC0C130D10509F493C020F0C430D105A5
:100D100008F08EC0D0E0C0E08BC0CD3BD10508F418
:100D20008BC0CE01805C9109C03CD10598F30E9434
:100D30005B06EC017DC0C11520E2D20750F4C1155D
:100D400081E0D80708F074C0C03FD10518F3D06522
:100D50006FC0C11520E3D20708F0C5C0CE019F7057
:100D6000E6CFC11585E5D80760F5C11524E5D207A2
:100D700008F0F1C0C11582E5D80750F4C11521E58E
:100D8000D20708F4BDC0DC2FCC27C16FD06A50C099
:100D90009C2F969596959E0123703327C115D345B8
:100DA00008F0CAC0C1E0D0E002C0CC0FDD1F2A9518
:100DB000E2F720E2929FC0011124C82BD92BDC68F6
:100DC00037C0C11529E5D20780F4C11588E5D807D9
:100DD00008F0C6C0C11526E5D20708F09BCFDC2F6E
:100DE000CC27CC27DF71D06223C0C1158AE5D80794
:100DF00008F4BBC0CE0190568115904208F08ACF0E
:100E00008D2F8F710E948708DD27D06290E0982F88
:100E1000882788279F71C82BD92B0AC0C53AD105CE
:100E200009F4B0C0C63AD10509F4AFC0C3E8D0E4B4
:100E3000CE01DF91CF910895C83AD10509F4A8C039
:100E4000C93AD10509F4A7C0CA3AD10509F4A6C028
:100E5000CB3AD10509F4A5C0CC3AD10509F4A4C018
:100E6000CB3BD10509F4A3C0CC3BD10509F4A2C00A
:100E7000CD3AD10509F4A1C0C03BD10509F4A0C009
:100E8000CE3AD10509F49FC0CF3AD10509F49EC0EE
:100E9000C13BD10509F49DC0C23BD10509F49CC0FA
:100EA000C33BD10509F49BC0C43BD10509F49AC0EA
:100EB000C53BD10509F499C0C63BD10509F498C0DA
:100EC000C73BD10509F497C0C83BD10509F496C0CA
:100ED000C93BD10509F495C0CA3BD10509F094C0BE
:100EE000CAE2D6E4A5CFCE019927D3FF03C0EC0117
:100EF000D86C9ECFEC01D06C9BCFDF70D06A98CFBE
:100F0000CE01E4E096958795EA95E1F783709C2FF2
:100F1000937021E030E002C0220F331F9A95E2F770
:100F20003C68382BC695C695C37080E2C89FE00127
:100F30001124C22BD32B7CCFC1E0D0E002C0CC0F58
:100F4000DD1F2A95E2F720E2929FC0011124C82BF1
:100F5000D92BDA686DCFDC2FCC27C46FD06A68CF6D
:100F6000DC2FCC27C06FD06A63CFCE0134E09695DA
:100F700087953A95E1F78F70CF70C06ED0E0D06A58
:100F8000D82B56CFC1E8D0E453CFC2E8D0E450CF3D
:100F9000C2EED4E44DCFC9EED4E44ACFCAEED4E4D5
:100FA00047CFC5EBD4E444CFC6EBD4E441CFC3EB89
:100FB000D4E43ECFC4EBD4E43BCFC7EBD4E438CF8A
:100FC000CCECD4E435CFCDECD4E432CFC3E8D5E4D7
:100FD0002FCFCAE8D5E42CCFC2E9D5E429CFC4E9A4
:100FE000D5E426CFC1E2D6E423CFC3E2D6E420CFB6
:100FF000C4E2D6E41DCFC5E2D6E41ACFC6E2D6E4F9
:1010000017CFC7E2D6E414CFC0E0D4E411CF8238C2
:10101000910549F1B0F48133910509F45CC048F4BD
:101020008932910509F452C08A32910509F458C0F9
:1010300008958533910509F444C08933910599F0E9
:101040000895833E910531F138F4803E910591F089
:10105000823E9105B1F00895863E910511F1873EDB
:10106000910541F10895209126022370C9F080EE88
:1010700090E008952091260220FF12C089E390E0BD
:1010800008952091260222FF0BC024FF2EC090E07D
:1010900080E008952091260222FD2AC024FDF7CF8A
:1010A00008952091260223FFFBCF24FDF0CF87EE89
:1010B00090E008952091260223FFF0CF86EE90E085
:1010C00008952091260225FD16C00895209126023C
:1010D00025FD14C008952091260226FD12C0089512
:1010E0002091260226FD10C0089583EE90E0089519
:1010F00082EE90E0089589E290E0089585E390E023
:1011000008958AE290E0089581E390E0C9CF90913C
:10111000260292FF06C0282F2871283069F4877FA5
:10112000846093FF06C0282F2871283161F4877EE0
:10113000846194FD877E0895282F2471243089F7D7
:101140008B7F8860EECF282F2471243191F78B7E1E
:101150008861EFCF08950F931F93CF938C01FB010C
:101160008281811106C0C1E08C2FCF911F910F9118
:101170000895C0914501C11125C006311C4599F75C
:101180000E94AA0881E0809345010E940D1C909363
:101190004401809343011092380110923A01109259
:1011A000390110923C0110923B0110923E011092C5
:1011B0003D011092400110923F01109242011092A5
:1011C0004101D2CF80914301909144010E94191CAA
:1011D000883C910540F680913801E82FF0E0EE0F51
:1011E000FF1FE75CFE4F118300838F5F8093380100
:1011F000C0E0BACFCF93DF9385B7806885BF85B74E
:10120000806885BFABE1B1E04FE151E0C1E0D0E0E3
:101210008D91E82FE295EF70F0E061A18F709E0153
:1012200001C0220F8A95EAF7922F9095962391A3F9
:1012300082A1822B82A34A175B0751F7A0E1B1E09C
:101240004BE151E0C1E0D0E08D91E82FE295EF70E5
:10125000F0E061A18F709E0101C0220F8A95EAF72C
:10126000922F9095962391A382A1822B82A34A1755
:101270005B0751F710924F0110924E0110924701F7
:1012800010924601109251011092500110924901A2
:1012900010924801109253011092520110924B018A
:1012A00010924A01109255011092540110924D0172
:1012B00010924C01DF91CF910C943A064F925F92BD
:1012C0007F928F929F92AF92BF92CF92DF92EF92D6
:1012D000FF920F931F93CF93DF93C6E4D1E00BE10E
:1012E00011E09FE1A92E91E0B92EEE24E394F12CB8
:1012F00099249394C880D98019821882D8018D913D
:101300008D01E82FE295EF70F0E091A18F709701C9
:1013100001C0220F8A95EAF7892F822B81A382A12F
:10132000822E8094882182A3B0EABA95F1F780E1F9
:10133000482E81E0582E90E080E0D2017D912D0171
:10134000472F42954F7050E0DA0190967C9048818B
:1013500059817F70D70102C0AA0FBB1F7A95E2F7AF
:10136000BD01672109F068C0B701082E02C0660FF1
:10137000771F0A94E2F7462B572B5983488301962F
:101380008B309105D1F681A1882281A282A1282BE0
:1013900022A388819981C816D90641F090925601FE
:1013A0000E940D1C90935801809357012296A0161D
:1013B000B10609F09FCF80915601882351F18091A9
:1013C0005701909158010E94191C069710F18091C5
:1013D00046019091470190934F0180934E01809177
:1013E000480190914901909351018093500180915F
:1013F0004A0190914B019093530180935201809147
:101400004C0190914D01909355018093540110929D
:1014100056010E943C0681E0DF91CF911F910F9110
:10142000FF90EF90DF90CF90BF90AF909F908F9004
:101430007F905F904F90089570E060E09CCFE82F20
:10144000F0E0EE0FFF1FE25BFE4F80819181089577
:101450000895CF92DF92EF92FF920F931F93CF9355
:10146000DF93E901662309F466C0E42EF12CEFEF67
:10147000F0E0E61BF109EE9D8001EF9D100DFE9D51
:10148000100D1124212FE12FFF27EE1AFF0A5CE334
:10149000C52ED12CB6010E94FB26FB01BC01E69EA5
:1014A000C001E79E900DF69E900D1124B6010E949A
:1014B000FB26E230F10589F168F4812F262F210FF8
:1014C000309781F0242F461B319761F080E020E0B7
:1014D00040E008C0E430F10551F128F1842F861B6B
:1014E0003597A1F7E42FF0E0EC53FD4F4491E22F44
:1014F000F0E0EC53FD4F9491E82FF0E0EC53FD4FFA
:10150000E49149839883EA83DF91CF911F910F91F2
:10151000FF90EF90DF90CF900895862F810FE42FFA
:10152000412F2E2FDFCFE42FE61B842FF9CF842FFE
:10153000462F410FD7CF842F242FD4CF88E090E0BF
:101540000C943127AB01BC0188E090E00C944F274C
:10155000E9E0F2E083E0808310920A028FEF828359
:1015600083836091090270910A0280910B0290912D
:101570000C020C94A20A6091090260FF06C06695F5
:101580006F7370E090E080E0089560E070E0CB0160
:10159000089580910902E1E1F2E080FF06C065E074
:1015A00070E081E192E00C94D20F118210821282DD
:1015B000339682E0E032F807C1F7F1CF909109024B
:1015C00090FF0CC0E1E1F2E08183608342833396B7
:1015D00092E0E032F907C1F70C94C90A0895EF923E
:1015E000FF920F931F93CF93DF9300D01F92CDB73D
:1015F000DEB7182FE92EF62E042F80910902909164
:101600000A02A0910B02B0910C0280930D029093FC
:101610000E02A0930F02B09310028091090280FF86
:101620001FC09E012F5F3F4F812F9E2D0E94290AD0
:1016300080910D0210FB87F980930D021695809121
:101640000E028078812BE0FA87F980930E02F092E7
:101650000F02009310024B8169818A810E94DE0A89
:101660000F900F900F90DF91CF911F910F91FF90EE
:10167000EF9008956F927F928F929F92AF92BF9258
:10168000CF92DF92EF92FF920F931F93CF93DF934E
:10169000EC01662E742E8091090280FF8CC0982F79
:1016A0009E77923079F5CE010E94EF0A809109026F
:1016B0009C2FC0FB87F980930902969580910A02BE
:1016C0008078892BD0FB87F980930A0260920B0205
:1016D00070920C026091090270910A0280910B02D3
:1016E00090910C02DF91CF911F910F91FF90EF909D
:1016F000DF90CF90BF90AF909F908F907F906F9032
:101700000C94A20AE82FE695EF739EE39E0F9F7359
:10171000943018F470900C02C9CF9AE39E0F9F7317
:10172000993070F4881F8827881F90910A02292F0A
:10173000220FC22FC82B97FB992790F9D92FB6CF2C
:1017400087E28E0F8F738A3008F0B0CFE951FF0B1C
:101750002FEFE0FF21E0EE7FE655FD4F859194915C
:1017600065E070E00E94FB2626035001279FB00C25
:1017700011247E0188E9E81A8EEFF80A01E112E0EF
:1017800080E2C82E82E0D82E98E6892E9924939480
:10179000C701B4010E94FB269801472D662D0E94C7
:1017A000290AEA0CFB1C0D5F1F4FC016D10681F7FA
:1017B0000E94C90A7BCFDF91CF911F910F91FF90BB
:1017C000EF90DF90CF90BF90AF909F908F907F90E1
:1017D0006F900895E9E0F2E02081221F2227221F66
:1017E00030910A02432F440F842F822B37FB992715
:1017F00090F90A9668E671E00E940F2743816281A2
:101800000C943A0B20910902221F2227221F3091AB
:101810000A02432F440F842F822B37FB992790F91C
:101820008A30910540F4825A9E4F40910C0260919B
:101830000B020C943A0B0A9768E671E00E940F279E
:10184000F4CF60910B026F3E90F46F5E80910902BD
:10185000881F8827881F90910A02292F220F97FB43
:10186000992790F940910C02822B0C943A0B6FEF60
:10187000EDCF60910B02613190F0615180910902CE
:10188000881F8827881F90910A02292F220F97FB13
:10189000992790F940910C02822B0C943A0B60E04E
:1018A000EDCF40910C024F3E90F44F5E80910902C3
:1018B000881F8827881F90910A02292F220F97FBE3
:1018C000992790F960910B02822B0C943A0B4FEF01
:1018D000EDCF40910C02413190F0415180910902CD
:1018E000881F8827881F90910A02292F220F97FBB3
:1018F000992790F960910B02822B0C943A0B40E0EF
:10190000EDCF9091090290FF42C09178811126C0DD
:101910009260909309026091090270910A0280918D
:101920000B0290910C020E94A20A80910902982F4A
:101930009E779230D9F410926E01881F8827881FF5
:1019400090910A02292F220F97FB992790F9409135
:101950000C0260910B02822B0C943A0B833210F034
:101960009464D7CF8F73880F982BD3CF982F9695E9
:101970009F732EE3290F2F73273120F491E090936A
:101980006E01DBCF995D9F739A30B8F6D4CF08957E
:101990008091E40181608093E40181E080936F0194
:1019A0000E94FB1A811104C00E94DA1A0E94A80A40
:1019B0000E949E0A6093090270930A0280930B02B0
:1019C00090930C026E7761F40E94A80A0E949E0A0E
:1019D0006093090270930A0280930B0290930C02A9
:1019E00081E080936E018091090280FF04C086959A
:1019F0008F730C94810C08958091090286958F73E2
:101A00008F5F833208F081E00C94810C8091090291
:101A100086958F73815009F482E20C94810CCF93E8
:101A2000DF93C9E0D2E088818160888360910902F8
:101A300070910A0280910B0290910C020E94A20AFE
:101A4000888186958F73DF91CF910C94810CE9E0AA
:101A5000F2E080818E7F80836091090270910A029A
:101A600080910B0290910C020E94A20A10926E01CA
:101A70002FEF80E792E0215080409040E1F700C0D6
:101A800000000C94C90A8091090280FD0C94270D76
:101A90000C940F0DCF93C82F80916C0190916D0124
:101AA0000E94191CEC2FF0E0E054FD4FE491E81780
:101AB000190611F008F042C00E940D1C90936D01B0
:101AC00080936C0160916B0170E090E080E00E9477
:101AD000FC2420E030E04FE753E40E941F242BED6C
:101AE0003FE049E450E40E9425260E9492260E948D
:101AF00099242BE43AE34EE25FE30E94B22320EF05
:101B00003BEF48ED52E40E9425260E94CB24462F4D
:101B100080910902881F8827881F90910A02292F27
:101B2000220F97FB992790F960910B02822B0E945C
:101B3000EF0A80916B018F5F80936B01CF910895C5
:101B4000CF93C82F8091690190916A010E94191C5E
:101B5000EC2FF0E0E354FD4FE491E817190609F08B
:101B6000E8F40E940D1C90936A01809369014091F2
:101B70000C0260910B0280916701909168010E94B4
:101B8000EF0A8091670190916801019668E671E023
:101B90000E94FB269093680180936701CF9108957E
:101BA000CF92DF92FF920F931F93CF93DF93F82E84
:101BB00080916501909166010E94191CEF2DE695B8
:101BC000F0E0E654FD4FE491E817190609F0B0F58E
:101BD0000E940D1C909366018093650101E112E063
:101BE000D0E0C0E088E6C82EDD24D3948091630164
:101BF000909164018C0F9D1FB6010E94FB269801F5
:101C000040910C0260910B020E94290AC85BDF4FD1
:101C10000D5F1F4FC83681E0D80741F70E94C90AFF
:101C20008091630190916401F0FE10C00196BE01A5
:101C30000E94FB269093640180936301DF91CF9112
:101C40001F910F91FF90DF90CF9008950197F2CFF1
:101C5000CF92DF92EF92FF920F931F93CF93DF9378
:101C6000C82FFF24FA9480FD02C0FF24F3948091D2
:101C70006101909162010E94191CC695EC2FF0E061
:101C8000E954FD4FE491E817190611F008F051C02E
:101C90000E940D1C909362018093610101E112E0AA
:101CA000D0E0C0E0F80111821082128294E0C92EC7
:101CB000D12CE12C809160018E0D87FD8B5F082E69
:101CC000000C990BC817D907E9F480910C028C9D80
:101CD000A0018D9D500D112455954795559547951B
:101CE00080910902881F8827881F90910A02592F26
:101CF000550F97FB992790F9980160910B02852B5E
:101D00000E94290AEF0CF1E0CF1AD10899F621962A
:101D10000D5F1F4FC530D10529F60E94C90A809179
:101D2000600191E0F91210C081110CC084E0809331
:101D30006001DF91CF911F910F91FF90EF90DF90A5
:101D4000CF9008958150F3CF90E00196BE010E949C
:101D50000F27EDCF0F931F93CF93DF93C82F809161
:101D60005E0190915F010E94191CEC2FF0E0EC5491
:101D7000FD4FE491E817190611F008F052C00E94D7
:101D80000D1C90935F0180935E01C1E1D2E0FE01E2
:101D9000118210821282339682E0E032F807C1F796
:101DA00010E000E080915D01082E000C990B0817EF
:101DB0001907E4F180910201082E000C990B80179D
:101DC0009107A4F180910902881F8827881F9091AC
:101DD0000A02592F550F97FB992790F99E014091C0
:101DE0000C0260910B02852B0E94290A0F5F1F4F86
:101DF000239605301105B1F60E94C90A80910101B0
:101E000090915D01980F90935D0120910201280F40
:101E100020930201121614F494301CF081958093E3
:101E20000101DF91CF911F910F91089519821882BE
:101E30001A82DCCFEF92FF920F931F93CF93DF9321
:101E400080915B0190915C010E94191C883E934037
:101E5000C8F10E940D1C90935C0180935B01C091BE
:101E60005901D0915A012196C170DD27D0935A01B2
:101E7000C093590181E1E82E82E0F82E10E008E7D6
:101E8000812F86958C0F9D2F911D81709927970129
:101E900040910C0260910B02FC010E9FC0010F9F4C
:101EA000900D11240E94290A1F5FF3E0EF0EF11C30
:101EB000153031F7DF91CF911F910F91FF90EF9087
:101EC0000C94C90ADF91CF911F910F91FF90EF9071
:101ED000089580916E01882391F190910902892FD4
:101EE00086958F732EE3280F2F73243018F48250B9
:101EF0000C944A0D2AE3280F2F73233018F48650D0
:101F00000C94A00D27E3280F2F73263018F4895066
:101F10000C94D00D21E3280F2F73263018F48F5026
:101F20000C94280E2BE2280F2F73233018F48551C0
:101F30000C94AA0E9E77903311F40C941A0F089506
:101F40003BB1242F209523233BB1432B3FB7F8947B
:101F5000FC01680F791FE617F70711F43FBF0895DA
:101F6000819198E04BB9000000C087FF2BB9880F22
:101F7000000000C000C000C02BB900C09A9591F7C6
:101F8000EACF2AB1242B2AB99B01220F331F620FFB
:101F9000731F0E94A00F87EC90E00197F1F700C03B
:101FA0000000089542E00C94C10F90937501809356
:101FB00074010895E0917401F0917501309721F05A
:101FC0000190F081E02D099480E00895E091740182
:101FD000F0917501309721F00280F381E02D099492
:101FE000089520917201309173012817390771F01B
:101FF0009093730180937201E0917401F0917501E7
:10200000309721F00680F781E02D09940895209102
:102010007001309171012817390771F090937101A7
:1020200080937001E0917401F0917501309721F077
:102030000084F185E02D0994089508950C941D10F5
:1020400081E008950E94041C0E94FA080E94A71CC7
:102050000C94C80C5F926F927F928F929F92AF9276
:10206000BF92CF92DF92EF92FF920F931F93CF9385
:10207000DF93CDB7DEB72A970FB6F894DEBF0FBE59
:10208000CDBF0E945E090E942010882309F478C009
:1020900097E7A92E91E0B92E10E000E08824839400
:1020A000912C502E802F0E941F0A7C01F501C190B7
:1020B000D1905F01C816D90609F45CC08091E40193
:1020C00081FD0E94280A90E080E0CE24DF243401C4
:1020D000082E02C0660C771C0A94E2F796012621AE
:1020E0003721232B09F441C08E835F82E620F7203D
:1020F00081E0EF2809F480E088870E940D1C816050
:10210000782F9A8789874E815F8168858A850E94AA
:10211000E710000F111FF801E958FE4F80819181EF
:1021200068267926718260820E94DA0F909176018A
:102130008917B9F10E94DA0F809376012A960FB6BB
:10214000F894DEBF0FBECDBFDF91CF911F910F91ED
:10215000FF90EF90DF90CF90BF90AF909F908F90C7
:102160007F906F905F900C94410601968B309105A3
:1021700009F0ADCF0F5F1F4F0430110509F091CF6B
:102180008FEF89838A831B820E940D1C8160782FC8
:102190009D838C8349815A816B818D810E94E710D8
:1021A000C3CF2A960FB6F894DEBF0FBECDBFDF9126
:1021B000CF911F910F91FF90EF90DF90CF90BF9044
:1021C000AF909F908F907F906F905F900895CF9386
:1021D000DF93CDB7DEB72B970FB6F894DEBF0FBEF7
:1021E000CDBF4F83588769877A878B871E821D8270
:1021F00085E0FE013796DE01119601900D928A95D9
:10220000E1F749815A816B817C818D819E812B967A
:102210000FB6F894DEBF0FBECDBFDF91CF910C9407
:10222000AB17FC01808191810C941A1A882309F460
:10223000F3C08238B9F40E94DA0F81FDEDC089E362
:102240000E94271A0E946B1A2FEF81EE94E0215012
:1022500080409040E1F700C0000089E30E942E1A00
:102260000C946B1A8338A1F40E94DA0F80FDD4C05D
:1022700083E50E94271A0E946B1A2FEF81EE94E0EB
:10228000215080409040E1F700C0000083E5E6CF98
:102290008438A1F40E94DA0F82FDBEC087E40E9458
:1022A000271A0E946B1A2FEF81EE94E02150804094
:1022B0009040E1F700C0000087E4D0CF9CEF980F7A
:1022C000913A18F40E94271ACBCF90E2980F9830D9
:1022D00050F4877091E001C0990F8A95EAF7892F31
:1022E0000E94A11ABDCF9BE5980F933070F4853AF8
:1022F00031F0863A39F083E890E00C94F10F81E8F0
:1023000090E0FBCF82E890E0F8CF98E5980F953108
:1023100008F082C0883A09F440C0893A09F440C004
:102320008A3A09F440C08B3A09F440C08C3A09F467
:1023300040C08B3B09F440C08C3B09F440C08D3A4F
:1023400009F440C0803B09F440C08E3A09F440C013
:102350008F3A09F440C0813B09F440C0823B09F444
:1023600040C0833B09F440C0843B09F440C0853B36
:1023700009F440C0863B09F440C0873B09F440C0E3
:10238000883B09F440C0893B09F440C08A3B09F40A
:1023900040C090E080E00C94071082EE90E0FBCF0C
:1023A00089EE90E0F8CF8AEE90E0F5CF85EB90E0F3
:1023B000F2CF86EB90E0EFCF83EB90E0ECCF84EBB5
:1023C00090E0E9CF87EB90E0E6CF8CEC90E0E3CFB4
:1023D0008DEC90E0E0CF83E891E0DDCF8AE891E0FA
:1023E000DACF82E991E0D7CF84E991E0D4CF81E2DE
:1023F00092E0D1CF83E292E0CECF84E292E0CBCFE5
:1024000085E292E0C8CF86E292E0C5CF87E292E013
:10241000C2CF8AE292E0BFCF0895882309F44BC06F
:10242000823871F40E94DA0F81FF45C089E30E946F
:10243000271A0E946B1A89E30E942E1A0C946B1AB9
:10244000833859F40E94DA0F80FF35C083E50E947B
:10245000271A0E946B1A83E5EFCF843859F40E9443
:10246000DA0F82FF28C087E40E94271A0E946B1AA5
:1024700087E4E2CF9CEF980F913AF0F290E2980F48
:10248000983050F4877091E001C0990F8A95EAF76F
:10249000892F0E94A71AD2CF9BE5980F933020F482
:1024A00090E080E00C94F10F885A853120F490E0A0
:1024B00080E00C9407100895882321F00E94A11A4F
:1024C0000C946B1A0895882321F00E94A71A0C948B
:1024D0006B1A08958F929F92AF92BF92DF92EF9204
:1024E000FF920F931F93CF93DF937C01D62FC72FBB
:1024F000FC01058102950F70128111110E94C01A12
:102500000E94641AD82E882371F0112331F180E2E1
:102510008D0F883010F182E00E944E1A0E94641ADA
:1025200091E0D82ED926BC2EB2949FE0B922EB2D93
:10253000F0E0E356FD4E0C942327AF12AF12FF12CA
:10254000FF12411348134813481369134813041426
:1025500004148E14481348139714D12CE4CF0C2F75
:102560000F70C07F11F00295007F1123A9F00023A6
:1025700059F080E28D0F883010F0D11109C0802F02
:102580000E94A11A0E946B1A8D2F0E94161114C06E
:10259000802F0E94B21AF6CF8D2F0E940D120023B9
:1025A00059F080E28D0F883010F0D11124C0802FB7
:1025B0000E94A71A0E946B1ADD2009F4BFC10E9475
:1025C000411A80FDBBC1F70112820E943B1A0E9492
:1025D0003C19C7010E94AA140E943B1ADF91CF91B7
:1025E0001F910F91FF90EF90DF90BF90AF909F9061
:1025F0008F900C945D19802F0E94B81ADBCFFC2FAE
:10260000FF70BF2EC07FC03219F0B29480EFB822A5
:10261000DD2369F0D13021F1112369F1002329F183
:10262000F701858180FFB0CF8F7085831EC0112395
:1026300059F08B2D011103C00E945C12BDCF0130F7
:10264000D9F70E94D41AB8CF011106C00E94D71A38
:102650008B2D0E946312B0CF013009F4ADCFF6CFBD
:10266000112329F0063008F0A7CF8B2DE5CF0530D8
:1026700008F0A2CFEDCF002359F38D2F0E940D1249
:102680009BCF8C2F86958695837079F08130B9F039
:1026900098E0B91609F459C0B91608F48DCF86EF41
:1026A0008B0D823008F451C087CF8D2F9C2F9370F3
:1026B000111102C090E080E00E94F10F7DCF8D2FBC
:1026C0009C2F9370111102C090E080E00E940710CF
:1026D00073CF8C2F837009F04BC0111136C02D2F92
:1026E000229526952770220F220F6D2F6F70862E50
:1026F000912CB12CA12C022E04C0880C991CAA1C70
:10270000BB1C0A94D2F760E070E0CB01D4FF0FC08D
:102710006FE070E080E090E004C0660F771F881FD4
:10272000991F2A95D2F76095709580959095C695DA
:10273000C695C370C23071F0A0F4682979298A293E
:102740009B29C13091F00E94EE180E94DA0F0E947E
:10275000410632CF682979298A299B290E940019CC
:10276000F4CF0E94EE18C501B4010E94DC18EDCF31
:102770008695112311F08C2F8170882331F32D2F32
:10278000229526952770220F220F6D2F6F70862EAF
:10279000912CB12CA12C022E04C0880C991CAA1CCF
:1027A000BB1C0A94D2F760E070E0CB01D4FF0FC0ED
:1027B0006FE070E080E090E004C0660F771F881F34
:1027C000991F2A95D2F76095709580959095C6953A
:1027D000C695C370C23051F080F4682979298A29DE
:1027E0009B29C13071F00E94B319AFCF68297929B4
:1027F0008A299B290E94C519A8CF0E94B319C50137
:10280000B4010E94A119A1CFE0E2ED0FE53108F07B
:1028100066C0F0E0E25FFB4E0C94232723142314E0
:1028200023142314231423142314231423142314F0
:1028300023142314231423142314231434144214B0
:10284000491450145A14DF708C2F8F71112331F0FA
:102850000E943C198D2F0E945C121ACF0E945D19B4
:102860008D2F0E94631214CF112341F0053008F020
:102870000FCF8C2F8F710E9480190ACF063008F07D
:1028800007CFF7CF8C2F8F71112339F00E943C199D
:10289000FFCE8C2F8F711123C9F30E945D19F8CEE2
:1028A000112329F08C2F8F710E942719F1CE0E94DD
:1028B0002219EECE112349F0CF718C2F0E943C19C2
:1028C00063E08C2F0E94451AE3CE81E00E944E1AED
:1028D000023008F4DDCE82E00E944E1AD9CE1123D8
:1028E00049F0002321F08D2F0E941611D1CE8C2F9C
:1028F0008F71CCCF002379F0D93349F4FFEF27EE65
:1029000083E0F15020408040E1F700C000008D2FAF
:102910000E940D12BDCE8C2F8F71BFCF4C2F4F70E8
:102920006D2FC7010E9443060E94541845CE4C2FBC
:102930004F706D2FC7010E9446063ECEDF91CF91AA
:102940001F910F91FF90EF90DF90BF90AF909F90FD
:102950008F9008950F931F93CF93DF93EC0198818D
:1029600089812B813C81232B39F08F3F19F481E041
:102970009F3F19F080E001C081E080FD17C0CE01CB
:102980000E949703882391F0688179818A810E944F
:10299000241A8C010E94D7190E94D918B801CE01BF
:1029A000DF91CF911F910F910C946A12DF91CF911B
:1029B0001F910F9108950E94C01A0E94D11A0E947F
:1029C000351A0E946B1A90E080E00E94F10F90E0AF
:1029D00080E00C9407100E94AF1A0C94DB140E9444
:1029E0001A1AE92FE295EF70E250EE30E0F4F0E0D1
:1029F000E450FB4E0C9423270A150A1513151315E2
:102A000015151315131513150A150A151A1513158F
:102A100013151A15803F19F020F4803E20F481E050
:102A20000895843FE1F380E00895803EC0F3813F44
:102A3000D1F7F5CF93FB882780F90895CF93DF93E3
:102A400000D000D01F92CDB7DEB70F900F900F903F
:102A50000F900F90DF91CF910895CF93DF9300D027
:102A600000D000D0CDB7DEB726960FB6F894DEBF03
:102A70000FBECDBFDF91CF9108951F93CF93DF930A
:102A8000C0917F0116E0809180018C1304C0DF911A
:102A9000CF911F910895D0E01C9FF0011D9FF00D74
:102AA0001124EF57FE4F40815181628173818481EF
:102AB00095810E942D152196C770E5CF4091B101F7
:102AC0005091B2016091B3017091B4018091B50150
:102AD0009091B6010C942D151F93CF93DF938091A5
:102AE000B601807FD1F48091B3018823B1F0809149
:102AF0007F01D0918001B091B101C091B2014091AC
:102B0000B4015091B501A1E0BF3F09F0A0E0BA01C6
:102B10006095709516E0D81304C0DF91CF911F9196
:102B2000089521E04115510521F02A2FCF3F09F0EA
:102B300020E090E020FD38C0189FF001199FF00DB3
:102B40001124EF57FE4F21812C132EC020812B130F
:102B50002BC02281211128C02381348124173507FD
:102B600000F1241B350B283C3105F0F42091B6010F
:102B70002F7020612093B60126E0289FF001299F45
:102B8000F00D1124EA57FE4F80818F7080618083A1
:102B900081EB91E00E94AA14DF91CF911F910C94D8
:102BA0003D15260F371FDFCF01968770B4CFAF9248
:102BB000BF92CF92DF92EF92FF920F931F93CF932A
:102BC000DF93CDB7DEB761970FB6F894DEBF0FBEC7
:102BD000CDBF8C0185E0F801DE011D9601900D92BC
:102BE0008A95E1F7D8014C9111965C911197129654
:102BF000EC903091B1016091B2018091B40190915B
:102C0000B50121E0009731F06F3F19F421E03F3F1B
:102C100009F020E0B22FB170BB2E20FD80C1F80179
:102C2000C380D480A090B301AA2009F427C1C8169C
:102C3000D906D0F1D601A81BB90BCD01FF24F3941E
:102C4000883C910508F0F12C8091B601982F907F77
:102C5000FF2009F4CEC0911187C0FE2C651329C056
:102C6000341327C0E11025C08F7080618093B601B6
:102C70000E945E1581EB91E00E94AA148091B6013A
:102C8000F80185838F2D61960FB6F894DEBF0FBED5
:102C9000CDBFDF91CF911F910F91FF90EF90DF900B
:102CA000CF90BF90AF900895809590958C0D9D1D0D
:102CB000C5CF81E0CD2831F05F3F19F481E04F3F6F
:102CC00009F080E080FD24C081E08E25F82FF170AE
:102CD000DF2E80FF3FC080917F012091800136E090
:102CE000821318C04D875E878D859E850E941A1AB3
:102CF000292F22952F70223008F1243030F59F7053
:102D000009F1D80115969C91907FE1F4FB2CBACF84
:102D100080E0DCCF90E0389FF001399FF00D112466
:102D2000EF57FE4F6181561306C06081461303C002
:102D300062816E110FC001968770D2CF9F7011F023
:102D4000882321F3805E883008F3C8010E94AA140A
:102D5000BD2CDCCFEE2009F495CF8091B6018160C7
:102D60008093B601F12C8ECF651314C0341312C0BA
:102D7000E11010C0F8018583C8010E94AA1486E002
:102D8000F801A1EBB1E001900D928A95E1F70E9464
:102D90005E1578CF4D875E878D859E850E94EF14E6
:102DA000882319F1EE2009F18091B601803270F08C
:102DB0002091B1013091B20138872F831986DB86CB
:102DC000CA868C87CE0107960E94AA1486E0F80175
:102DD000A1EBB1E001900D928A95E1F70E946C158C
:102DE0000E945E15FF24F3944DCFC8010E94AA14DF
:102DF000F9CF911113C07C2DD98AC88A6E2D89898B
:102E00000E941E1581EB91E00E94AA1486E0E1EB7E
:102E1000F1E0DF011D928A95E9F7B9CF651312C081
:102E2000341310C0E1100EC0F8018583C8010E9460
:102E3000AA14E1EBF1E086E0DF011D928A95E9F743
:102E4000FA2C20CF4D875E878D859E850E94EF14DA
:102E5000882359F2EE2049F28091B601803208F4BD
:102E6000B5CF2091B1013091B2013A8329831B8201
:102E7000DD82CC828E83CE010196A6CFC816D906FC
:102E800038F1F601E81BF90BCF01F12C883C9105D4
:102E900008F03DC0FE2CEE2009F4A7CF651326C034
:102EA000341324C08091B60180FD17C0982F907F05
:102EB000A1F0D80115968C931597903F09F45CCF3B
:102EC000982F907F905F8F70892B15968C9354CF9D
:102ED000809590958C0D9D1DD8CF86E0F801A1EBD3
:102EE000B1E001900D928A95E1F7CCCE4D875E87D7
:102EF0008D859E850E94EF14811168CF8091B60167
:102F000081608093B601C8010E94AA14BBCE7C2DBB
:102F1000D98AC88A6E2D89890E941E1577CFEE2026
:102F200009F463CF4D875E878D859E850E94EF14DF
:102F3000F82E882309F459CF86E0F801A1EBB1E01F
:102F400001900D928A95E1F781EB91E00E941111B9
:102F50000E946C151CCF1F93CF93DF93CDB7DEB7C4
:102F60002C970FB6F894DEBF0FBECDBF4F835887A6
:102F700069877A878B879C87CE0107960E94D71531
:102F8000882309F442C09F8188852A853B85232BAD
:102F900039F08F3F19F481E09F3F19F080E001C0C4
:102FA00081E080FD08C04F81588569857A858B85D1
:102FB0009C850E942D1516E080917F0190918001E3
:102FC000891709F467C0819FC00111248F579E4F54
:102FD0000E94D715882309F45DC0E0917F011E9FF0
:102FE000F0011124EF57FE4F4081518162817381BE
:102FF000848195810E942D1580917F0190E001963A
:103000008770992780937F01D7CF86E0FE0137969E
:10301000DE01119601900D928A95E1F79F818885D6
:103020002A853B85232B39F08F3F19F481E09F3FA0
:1030300019F080E001C081E080FDBDCF20918001CA
:1030400030E0C90101968770992740917F014817A8
:10305000190699F096E0929FD001939FB00D11242C
:10306000AF57BE4FFE01319601900D929A95E1F750
:10307000809380010E943D159ECF0E94EB14109218
:10308000800110927F0186E0E1EBF1E0DF011D920B
:103090008A95E9F72C960FB6F894DEBF0FBECDBF28
:1030A000DF91CF911F910895EF92FF920F931F939D
:1030B000CF93DF938C01892B81F0F12CEE24E394E4
:1030C000E8012196F8018491843770F4843008F087
:1030D0005FC08130B1F08230A1F1DF91CF911F91BB
:1030E0000F91FF90EF900895853709F44CC008F4D4
:1030F0003DC09CE7980F903780F78F770E940D12A4
:1031000049C00E5F1F4FFE01849190E2980F9830E6
:1031100060F48770FE2D01C0FF0F8A95EAF78F2FAC
:103120000E94C31A0E946B1A02C00E9416118F2DB2
:10313000815030F2EFE9FFE03197F1F700C0000075
:10314000F7CF0E5F1F4FFE01849190E2980F9830E9
:1031500050F48770FE2D01C0FF0F8A95EAF78F2F7C
:103160000E94C91ADFCF0E940D12E1CF0E5F1F4FE0
:10317000FE01C491C150D8F28FE99FE00197F1F7A9
:1031800000C00000F7CF0E5F1F4FFE01F490CFCFBD
:103190000E9416118E01CBCF08950E94CC18609327
:1031A000BB017093BC018093BD019093BE010C9450
:1031B000DB1408950C94CD180F931F930091BB015D
:1031C0001091BC012091BD013091BE01602B712B8B
:1031D000822B932B1F910F910C94CD180F931F935B
:1031E0000091BB011091BC012091BD013091BE0145
:1031F00060237123822393231F910F910C94CD1888
:103200000F931F930091BB011091BC012091BD0150
:103210003091BE0160277127822793271F910F915C
:103220000C94CD180C94CC180C9412190E941419FB
:103230006093B7017093B8018093B9019093BA017C
:103240000C94DB1460E070E0CB010C9416190F9322
:103250001F9341E050E060E070E08A019B0104C0F0
:10326000000F111F221F331F8A95D2F7C901B80121
:103270001F910F910C9416190F931F9341E050E08A
:1032800060E070E004C0440F551F661F771F8A95E9
:10329000D2F78091B7019091B801A091B901B09196
:1032A000BA018A019B01082B192B2A2B3B2BC90140
:1032B000B8011F910F910C9416190F931F9341E0C1
:1032C00050E060E070E004C0440F551F661F771F98
:1032D0008A95D2F7CB01BA0160957095809590954B
:1032E0000091B7011091B8012091B9013091BA0154
:1032F00060237123822393231F910F910C9416193D
:103300000F931F9341E050E060E070E004C0440F71
:10331000551F661F771F8A95D2F78091B70190914C
:10332000B801A091B901B091BA018A019B010827A7
:1033300019272A273B27C901B8011F910F910C9427
:1033400016190F931F930091B7011091B8012091A6
:10335000B9013091BA01602B712B822B932B1F91F5
:103360000F910C9416190F931F930091B7011091B0
:10337000B8012091B9013091BA01602371238223F1
:1033800093231F910F910C9416190F931F93009183
:10339000B7011091B8012091B9013091BA016027AD
:1033A0007127822793271F910F910C941619089566
:1033B000BF92CF92DF92EF92FF920F931F93CF9322
:1033C000DF938C01C090B701D090B801E090B901B3
:1033D000F090BA018091BB019091BC01A091BD0118
:1033E000B091BE01C82AD92AEA2AFB2ACFE1D0E04F
:1033F000BC2ED701C6010C2E04C0B695A795979593
:1034000087950A94D2F780FD0EC0219788F7B12CDA
:103410008B2DDF91CF911F910F91FF90EF90DF9057
:10342000CF90BF900895B8018C2F0E94630601973A
:1034300061F3EECFCF93DF93EC010E94D819BE0168
:10344000DF91CF910C946306CB010C941A1A682F6C
:1034500080910301909104010C94741B682F80915A
:103460000301909104010C947F1B809103019091C2
:1034700004010C948A1B8091BF01859585958595E3
:1034800008958091BF018770089598E0899F900109
:103490001124622B6093BF010C943C199091BF01E1
:1034A000809589238093BF01282F277061F4282FEE
:1034B000082E000C330B9217130629F0859585957D
:1034C00085950C945D1908959091BF01977081E0E6
:1034D00009F480E00895E0910301F09104018091E6
:1034E000E3018083E0910301F091040180819091D8
:1034F000E201892B8083E0910301F0910401808136
:103500009091E101892B80839091C001992381F0F2
:10351000E0910301F09104018081892B80838091E7
:103520000301909104010E94171B81111092C001A8
:1035300080910301909104010C94E60F8091E301C6
:1035400008959091E301892B8093E3010895982FCA
:1035500090958091E30189238093E301089510926F
:10356000E30108959091E201892B8093E20108958F
:10357000982F90958091E20189238093E20108952C
:103580001092E20108959091E101892B8093E1016D
:103590000895982F90958091E10189238093E1010E
:1035A00008951092E10108958093C001089510924A
:1035B000C00108956DEE7EEF90E080E00E945B27F1
:1035C00060E082E090E00E943D2760E083E090E0D0
:1035D0000E943D2760E084E090E00E943D2760E08B
:1035E00085E090E00E943D2740E050E0BA0188E08D
:1035F00090E00C944F2790E080E00E94372721E074
:103600008D3E9E4F09F020E0822F089582E090E0E9
:103610000C94292783E090E00C94292784E090E023
:103620000C942927682F84E090E00C943D27FC013E
:1036300031969C01205E3F4F80E0919191118F5F08
:10364000E217F307D1F708959C01FC0132969FEF32
:1036500080E04191461751F09F3F19F4411101C09C
:10366000982F8F5F8E31A9F79F3F09F40895290F96
:10367000311D97FD3A95F90162830895FC01329658
:1036800080962191261303C0DF0111971C92E81741
:10369000F907B9F70895E62FE695E695E695EF3137
:1036A00069F0E80FF92FF11D677021E030E001C0EB
:1036B000220F6A95EAF78181822B81830895E62F94
:1036C000E695E695E695EF3171F0E80FF92FF11DDB
:1036D000677021E030E001C0220F6A95EAF720957B
:1036E000818128232183089520910F01222329F02D
:1036F0002091260227FD0C944B1B0C94241B209137
:103700000F01222329F02091260227FD0C945F1B34
:103710000C943E1BFC01319680961192E817F90734
:10372000E1F7089580912C02843039F11092E5017F
:1037300088E190E020E40FB6F894A89580936000AB
:103740000FBE2093600080E00E94410683B7817F16
:10375000846083BF83B7816083BF7894889583B783
:103760008E7F83BF0FB6F894A89580916000886122
:1037700080936000109260000FBE08950895089530
:10378000CF930E94BE1B0E945E090E94BF1BC0E037
:103790008C2F0E941F0A892B31F4CF5FC430C1F7F0
:1037A00080E0CF91089581E0FCCF0E94EB140E944D
:1037B000DA0F0C9441061F920F920FB60F9211244C
:1037C0008F939F93AF93BF938091E501811113C0B5
:1037D0008091200290912102A0912202B0912302B7
:1037E0004196A11DB11D8093200290932102A093C8
:1037F0002202B0932302BF91AF919F918F910F90BE
:103800000FBE0F901F90189582E084BD93E095BD88
:103810009AEF97BD80936E0008952FB7F89480912A
:10382000200290912102A0912202B09123022FBF89
:103830000895CF92DF92EF92FF920F931F932FB7CD
:10384000F8944091200250912102609122027091DF
:1038500023022FBF6A017B01EE24FF248C0130E09C
:1038600020E0C016D106E206F30650F0481B590BC3
:10387000CA011F910F91FF90EF90DF90CF900895B4
:1038800041505109F3CF78941F920F920FB60F92C7
:1038900011248F939F93AF93BF93809120029091B7
:1038A0002102A0912202B09123020196A11DB11D17
:1038B0008093200290932102A0932202B0932302CE
:1038C000BF91AF919F918F910F900FBE0F901F905E
:1038D000189589E0E3E0F0E080935700E4918E2FA3
:1038E000867051F180E09FE390932502809324023B
:1038F00081E08093E00080E28093D8001092C900BC
:103900008FE19EE40197F1F700C0000087E090EBA3
:10391000DC018093350290933602A0933702B09376
:10392000380288E19CE00FB6F894A8958093600077
:103930000FBE90936000FFCF80E09EE3E2FDD4CF06
:1039400080E09CE3E1FDD0CF80E098E3CDCF0E9402
:10395000FB1A811102C00E94DA1A0E94061B809392
:10396000E4010E940E1B90E09093270280932602B0
:103970000E940A1B682F70E090E080E00C94DA1837
:1039800080910602089508950F931F93CF93DF93BC
:1039900000D01F92CDB7DEB78C010E94031F82308A
:1039A00011F0843021F583E089831B830A8382E050
:1039B0008093E9008FEF9091E800815095FD06C05B
:1039C00095ED9A95F1F700008111F5CF8091E8000F
:1039D00085FF0DC050E040E063E070E0CE0101964D
:1039E0000E94201F8091E8008E778093E8000F905E
:1039F0000F900F90DF91CF911F910F910895CF936A
:103A0000DF9300D01F92CDB7DEB720912C02243077
:103A100029F522E02983805891099B838A8320938A
:103A2000E9008FEF9091E800815095FD06C095ED7B
:103A30009A95F1F700008111F5CF8091E80085FF9C
:103A40000DC050E040E063E070E0CE0101960E94BE
:103A5000201F8091E8008E778093E8000F900F90F0
:103A60000F90DF91CF910895CF93DF93EC010E94E7
:103A7000031F823011F08430F9F480910F01882304
:103A8000F1F08091260287FF1AC083E08093E9005D
:103A90008FEF9091E800815095FD06C095E19A95D1
:103AA000F1F700008111F5CF8091E80050E040E08F
:103AB00060E270E085FD1AC0DF91CF91089581E04A
:103AC0008093E9008FEF9091E800815095FD06C04A
:103AD00095ED9A95F1F700008111F5CF8091E800FE
:103AE00085FFEACF50E040E068E070E0CE010E9440
:103AF000201F8091E8008E778093E80080E2FE012D
:103B0000A6EEB1E001900D928A95E1F7D5CF8091B4
:103B10002B02811109C00E94B0200E940D218091CA
:103B2000E20084608093E200089510922B020895D1
:103B3000089508950C94D51B42E061EC81E00E9449
:103B40002E2042E061EC82E00E942E2042E261ECF5
:103B500083E00C942E2080912E02833009F455C00E
:103B600030F4813071F1823009F491C008958A30C7
:103B700009F47DC08B3009F463C0893009F044C07A
:103B800080912D02813209F03FC0809131029091E5
:103B90003202009711F00297B9F58091E800877F13
:103BA0008093E8008091E80082FF2AC08091F100B4
:103BB000809306028091E8008B778093E8000C9454
:103BC000622080912D02813AF9F48091E800877F8C
:103BD0008093E8008091310290913202892B61F448
:103BE00060E286EE91E070E00E946F1F8091E80035
:103BF0008B778093E800089560E090E080E0F3CF59
:103C000080912C028111CECF089580912D02813AAE
:103C1000D9F78091310290913202892BA9F78091D6
:103C2000E800877F8093E8008091E80080FFFCCF68
:103C300080910F018093F1008091E8008E77BDCFD5
:103C400080912D02813201F78091310290913202F0
:103C5000892BD1F68091E800877F8093E8000E944D
:103C6000622080912F0280930F010C94EB148091BD
:103C70002D02813249F68091E800877F8093E80029
:103C80000E94622080913002809307020895809103
:103C90002D02813A09F0B8CF8091E800877F8093A8
:103CA000E8008091E80080FFFCCF80910702C2CF3E
:103CB00084B7877F84BF0FB6F894A8958091600081
:103CC000886180936000109260000FBE80E880934E
:103CD0006100109261000E941E100E94B0200E949C
:103CE0000D218091E20084608093E20078940E942C
:103CF00096230E94221085E091E00E94D50F8091CA
:103D00002C02853029F00E942A100E94690FF7CFFB
:103D10000E94921B80912A02882389F30E94C01B73
:103D2000882369F30E940A1FEACF0C94971E292F5B
:103D300033272330310579F158F421303105F1F082
:103D40002230310519F190E080E030E020E01AC027
:103D500021323105C9F122323105A9F763307105ED
:103D600090F7FB01EE0FFF1FEE5DFE4F20813181CA
:103D7000615E7E4FFB01808190E004C082E190E0B3
:103D800026E534E0FA0131832083089584E590E04C
:103D900022E034E0F7CF99278130910579F040F0A7
:103DA0008230910571F0039771F6E4ECF3E002C004
:103DB000EEEFF3E0849190E09F01E4CFE2EFF3E0D7
:103DC000F9CFEAECF3E0F6CF6330710508F0BBCF32
:103DD000660F771FFB01E85DFE4F2081318189E08E
:103DE00090E0D0CF0895CF93C82F0E94F21EC093C9
:103DF0000802CF91089580912C02843011F081E067
:103E0000089582E0089580910802811102C00C9407
:103E1000FB1E089580E189BD82E189BD09B400FEE1
:103E2000FDCF8091D8008F7D8093D8008091E000F5
:103E300082608093E0008091E00081FDFCCF0895D6
:103E4000AF92BF92CF92DF92FF920F931F93CF93C7
:103E5000DF936C01EB018A010E948120F82E811111
:103E600023C00115110539F0F80180819181C81B2B
:103E7000D90BC80ED91EB12CA12C2097A9F0809186
:103E8000E80085FD22C08091E8008E778093E800ED
:103E900001151105A1F0F80180819181A80EB91ECC
:103EA000B182A08285E0F82E8F2DDF91CF911F91F6
:103EB0000F91FF90DF90CF90BF90AF9008950E9438
:103EC00081208823D1F2F82EEFCFF60181916F0186
:103ED0008093F1002197FFEFAF1ABF0ACECFFC010C
:103EE000809133029091340286179707A0F06115F4
:103EF000710529F49091E8009E779093E80090E096
:103F00006115710551F4911108C08091E80082FF9C
:103F100035C080E00895BC01F2CF80912C02882347
:103F2000C9F18530C9F18091E80083FD31C08091ED
:103F3000E80082FDEACF8091E80080FFE1CF209188
:103F4000F3008091F200322F282F6115710519F0CE
:103F50002830310558F091E02830310509F090E023
:103F60002091E8002E772093E800CACF81918093BA
:103F7000F100615071092F5F3F4FE7CF80912C0214
:103F8000882341F0853041F08091E80083FFBDCF68
:103F900081E0089582E0089583E00895FC01809116
:103FA00033029091340286179707A0F061157105CE
:103FB00029F48091E8008E778093E80090E0611505
:103FC000710551F4911108C08091E80082FF36C05C
:103FD00080E00895BC01F2CF80912C028823D1F1BA
:103FE0008530D1F18091E80083FD32C08091E800F6
:103FF00082FDEACF8091E80080FFE1CF2091F300BD
:104000008091F200322F282F6115710519F02830A8
:10401000310558F091E02830310509F090E08091A9
:10402000E8008E778093E800CACF84918093F100F6
:104030003196615071092F5F3F4FE6CF80912C027E
:10404000882341F0853041F08091E80083FFBCCFA8
:1040500081E0089582E0089583E00895982F9730D5
:1040600028F08F708093E90081E008959093E90033
:10407000242F762F50E0981731F07091EC002091AA
:10408000ED005091F00021FD02C09F5FE8CF30911C
:10409000EB003E7F3093EB003091ED003D7F30939D
:1040A000ED003091EB0031603093EB007093EC0049
:1040B0002093ED005093F0002091EE0027FDE5CF16
:1040C00080E0089580912D0287FF13C08091E80061
:1040D00082FF06C08091E8008B778093E80004C0DF
:1040E00080912C028111F2CF089580912C028823B7
:1040F000D9F38091E80080FFF8CF8091E8008E77B7
:10410000ECCF2091E4003091E50085E69091EC0041
:1041100090FF06C09091E80090FF06C080E00895EF
:104120009091E80092FDFACF90912C02992391F0A2
:10413000953091F09091EB0095FD10C04091E40016
:104140005091E5002417350709F381509A01F1F6E3
:1041500084E0089582E0089583E0089581E0089561
:104160000E941E210E942621E0EEF0E08081816005
:104170008083E8EDF0E080818F77808319BCA7ED24
:10418000B0E08C918E7F8C9380818F7E80831092A3
:104190002B0208950F931F93CF93DF930E941E214C
:1041A0000E942621C8EDD0E088818F77888388819E
:1041B0008068888388818F7D888319BC10922C0247
:1041C0001092280210922A021092290200EE10E0AA
:1041D000F80180818B7F808388818160888342E0C1
:1041E00060E080E00E942E20E1EEF0E080818E7F92
:1041F0008083E2EEF0E0808181608083808188604E
:104200008083F80180818E7F8083888180618883AC
:10421000DF91CF911F910F910895E8EDF0E080813B
:104220008F7E8083E7EDF0E080818160808384E091
:1042300082BF81E080932B020C94CA20E8EDF0E06D
:1042400080818E7F80831092E20008951092DA00C0
:104250001092E10008951F920F920FB60F92112451
:104260002F933F934F935F936F937F938F939F937E
:10427000AF93BF93EF93FF938091E10082FF0BC058
:104280008091E20082FF07C08091E1008B7F8093E4
:10429000E1000E9495238091DA0080FF19C080918F
:1042A000D80080FF15C08091DA008E7F8093DA00FD
:1042B0008091D90080FF94C080E189BD82E189BDF1
:1042C00009B400FEFDCF81E080932C020E94871D7F
:1042D0008091E10080FF19C08091E20080FF15C04D
:1042E0008091E2008E7F8093E2008091E200806105
:1042F0008093E2008091D80080628093D80019BC3E
:1043000085E080932C020E94991D8091E10084FF3A
:1043100029C08091E20084FF25C080E189BD82E14F
:1043200089BD09B400FEFDCF8091D8008F7D8093B8
:10433000D8008091E1008F7E8093E1008091E200BF
:104340008F7E8093E2008091E20081608093E200A2
:1043500080912802882309F449C084E080932C02CC
:104360000E949A1D8091E10083FF29C08091E200A4
:1043700083FF25C08091E100877F8093E10082E088
:1043800080932C02109228028091E1008E7F80930E
:10439000E1008091E2008E7F8093E2008091E20054
:1043A00080618093E20042E060E080E00E942E2085
:1043B0008091F00088608093F0000E94981DFF912A
:1043C000EF91BF91AF919F918F917F916F915F918D
:1043D0004F913F912F910F900FBE0F901F90189506
:1043E00019BC10922C020E94951D72CF8091E3009F
:1043F00087FD02C081E0B2CF83E0B0CF1F920F9261
:104400000FB60F9211242F933F934F935F936F93A7
:104410007F938F939F93AF93BF93CF93EF93FF932C
:10442000C091E900CF708091EC001092E90080917A
:10443000F000877F8093F00078940E943A221092D7
:10444000E9008091F00088608093F000C093E9005B
:10445000FF91EF91CF91BF91AF919F918F917F91FC
:104460006F915F914F913F912F910F900FBE0F90E1
:104470001F9018951F93CF93DF93CDB7DEB7AA9700
:104480000FB6F894DEBF0FBECDBFEDE2F2E0809133
:10449000F100819322E0E533F207C9F70E94AB1DDA
:1044A0008091E80083FF44C080912D0290912E02FC
:1044B0009A3008F03DC0E92FF0E0EF59FD4D0C9423
:1044C00023276B229122982291229822EF221123F6
:1044D000982268237523803889F0823849F58091C5
:1044E00031028F70873020F58093E9008091EB00D6
:1044F00085FB882780F91092E90006C08091290287
:1045000090912A02911182609091E800977F909398
:10451000E8008093F1001092F1008091E8008E771E
:104520002DC0282F2D7F21F48823D1F0823059F11E
:104530008091E80083FF0AC08091E800877F809324
:10454000E8008091EB0080628093EB00AA960FB6A2
:10455000F894DEBF0FBECDBFDF91CF911F910895BC
:1045600080912F02813021F7933009F080E0809311
:104570002A021092E9008091E800877F8093E8008A
:104580000E946220D5CF80912F028111F2CF8091BD
:1045900031028F702FEF280F263050F68093E900FC
:1045A0002091EB0020FFE5CF933031F48091EB00B8
:1045B00080628093EB00DDCF9091EB00906190934F
:1045C000EB0021E030E001C0220F8A95EAF720934A
:1045D000EA001092EA008091EB008860EACF811136
:1045E000A7CF10912F021F778091E3008078812B55
:1045F0008093E3008091E800877F8093E8000E9429
:1046000062208091E80080FFFCCF8091E300806809
:104610008093E30083E0111101C082E080932C02BB
:1046200087CF8058823008F083CF80912F029091FD
:1046300030028C3D23E09207A1F583E08A838AE271
:1046400089834FB7F894DE01139620E03EE051E2F3
:10465000E32FF0E050935700E49120FF03C0E29570
:10466000EF703F5FEF708E2F90E0EA30C0F0C7969A
:104670008D939D932F5F243159F74FBF8091E800B0
:10468000877F8093E8006AE270E0CE0101960E9485
:104690006F1F8091E8008B778093E80049CFC09628
:1046A000E7CF6091310270913202AE014F5F5F4FF0
:1046B0000E94951EBC01892B09F43ACF9091E80025
:1046C000977F9093E80089819A810E94CE1FE1CF65
:1046D000803809F02DCF8091E800877F8093E80033
:1046E000809128028093F10018CF811121CF909101
:1046F0002F02923008F01CCF8091E800877F8093D2
:10470000E800909328020E9462208091280288236A
:1047100031F084E080932C020E949C1D09CF80918F
:10472000E30087FDF6CF81E0F5CF0895CF93809128
:104730002C02882399F0C091E900CF708091EC00A1
:1047400080FD0EC080E0C82B1092E9008091E80047
:1047500083FD0E943A22CF70C093E900CF91089563
:1047600080E8F1CF5058BB27AA270E94CA230C9497
:1047700075250E94672538F00E946E2520F039F4D7
:104780009F3F19F426F40C943D250EF4E095E7FBC9
:104790000C943725E92F0E94862558F3BA17620733
:1047A00073078407950720F079F4A6F50C94A825E3
:1047B0000EF4E0950B2EBA2FA02D0B01B90190013C
:1047C0000C01CA01A0011124FF27591B99F0593F80
:1047D00050F4503E68F11A16F040A22F232F342FC8
:1047E0004427585FF3CF469537952795A795F04016
:1047F0005395C9F77EF41F16BA0B620B730B840B2B
:10480000BAF09150A1F0FF0FBB1F661F771F881FE2
:10481000C2F70EC0BA0F621F731F841F48F487953A
:1048200077956795B795F7959E3F08F0B0CF93952C
:10483000880F08F09927EE0F9795879508950E94A5
:1048400033240C9475250E946E2558F00E9467252C
:1048500040F029F45F3F29F00C94372551110C9456
:10486000A9250C943D250E94862568F39923B1F370
:10487000552391F3951B550BBB27AA276217730786
:10488000840738F09F5F5F4F220F331F441FAA1F1A
:10489000A9F335D00E2E3AF0E0E832D091505040D6
:1048A000E695001CCAF72BD0FE2F29D0660F771F84
:1048B000881FBB1F261737074807AB07B0E809F06A
:1048C000BB0B802DBF01FF2793585F4F3AF09E3FEF
:1048D000510578F00C9437250C94A9255F3FE4F33B
:1048E000983ED4F3869577956795B795F7959F5F32
:1048F000C9F7880F911D9695879597F90895E1E07E
:10490000660F771F881FBB1F621773078407BA07DC
:1049100020F0621B730B840BBA0BEE1F88F7E09537
:10492000089529F416F00C9437250C94A8250C94BE
:104930003D250E948E25A8F39638A0F707F80F9220
:10494000E8942BE33AEA48EB5FE70E943B260F929C
:104950000F920F924DB75EB70F920E94F125ECEACD
:10496000F0E00E9440254F915F91EF91FF91E59516
:10497000EE1FFF1F49F0FE57E0684427EE0F441F6B
:10498000FA95E1F74195550B0E94BB250F9007FE64
:104990000C94AF2508950E948E2588F09F5798F0BB
:1049A000B92F9927B751B0F0E1F0660F771F881F34
:1049B000991F1AF0BA95C9F714C0B13091F00E944E
:1049C000A825B1E008950C94A825672F782F882793
:1049D000B85F39F0B93FCCF3869577956795B39575
:1049E000D9F73EF490958095709561957F4F8F4FE4
:1049F0009F4F0895E89409C097FB3EF490958095E9
:104A0000709561957F4F8F4F9F4F9923A9F0F92F94
:104A100096E9BB279395F695879577956795B79512
:104A2000F111F8CFFAF4BB0F11F460FF1BC06F5FF8
:104A30007F4F8F4F9F4F16C0882311F096E911C00A
:104A4000772321F09EE8872F762F05C0662371F02B
:104A500096E8862F70E060E02AF09A95660F771F3F
:104A6000881FDAF7880F9695879597F9089597F933
:104A70009F6780E870E060E008959FEF80EC089504
:104A8000DF93CF931F930F93FF92EF92DF927B01FF
:104A90008C01689406C0DA2EEF010E943826FE01D0
:104AA000E894A5912591359145915591A6F3EF0193
:104AB0000E94CA23FE019701A801DA9469F7DF90EA
:104AC000EF90FF900F911F91CF91DF9108950024F7
:104AD0000A941616170618060906089500240A9463
:104AE00012161306140605060895092E0394000CE9
:104AF00011F4882352F0BB0F40F4BF2B11F460FF78
:104B000004C06F5F7F4F8F4F9F4F089557FD9058A0
:104B1000440F551F59F05F3F71F04795880F97FB81
:104B2000991F61F09F3F79F087950895121613063B
:104B30001406551FF2CF4695F1DF08C0161617066A
:104B40001806991FF1CF869571056105089408959F
:104B5000E894BB2766277727CB0197F908959B0137
:104B6000AC0160E070E080E89FE30C941F240C949B
:104B700037250C949A260E948E25D8F39923C9F3E1
:104B8000940F511DA3F39150504094F059F0882395
:104B900032F0660F771F881F91505040C1F79E3F3B
:104BA00051052CF7880F911D9695879597F90895D3
:104BB0005F3FACF0983E9CF0BB2786957795679554
:104BC000B79508F4B1609395C1F7BB0F58F711F48E
:104BD00060FFE8CF6F5F7F4F8F4F9F4FE3CF0C9405
:104BE000A925FA01DC01AA0FBB1F9B01AC01BF572D
:104BF00028F4222733274427507820C0B75190F457
:104C0000AB2F0024469537952795011CA395D2F329
:104C1000002071F0220F331F441FB395DAF30ED03A
:104C20000C94B22361307105A0E88A07B94630F4CC
:104C30009B01AC016627772788279078309621F072
:104C4000208331834283538308950E9438260C9435
:104C500075250E94672538F00E946E2520F0952367
:104C600011F00C9437250C943D2511240C94A925A2
:104C70000E94862570F3959FC1F3950F50E0551F54
:104C8000629FF001729FBB27F00DB11D639FAA27A1
:104C9000F00DB11DAA1F649F6627B00DA11D661FF0
:104CA000829F2227B00DA11D621F739FB00DA11D11
:104CB000621F839FA00D611D221F749F3327A00DCB
:104CC000611D231F849F600D211D822F762F6A2F67
:104CD00011249F5750409AF0F1F088234AF0EE0FCC
:104CE000FF1FBB1F661F771F881F91505040A9F7F9
:104CF0009E3F510580F00C9437250C94A9255F3F09
:104D0000E4F3983ED4F3869577956795B795F79534
:104D1000E7959F5FC1F7FE2B880F911D96958795AC
:104D200097F908959F930E94AA260F9007FCEE5FC3
:104D30000C94D3269F3F31F0915020F487957795BE
:104D40006795B795880F911D9695879597F9089562
:104D50000C943D250E948E25D8F3E894E0E0BB2713
:104D60009F57F0F02AED3FE049EC06C0EE0FBB0F75
:104D7000661F771F881F28F0B23A620773078407FF
:104D800028F0B25A620B730B840BE3959A9572F775
:104D9000803830F49A95BB0F661F771F881FD2F7B3
:104DA00090480C949C26EF93E0FF07C0A2EA2AEDFE
:104DB0003FE049EC5FEB0E94CA230E9475250F90EB
:104DC000039401FC9058E4EDF0E00C94E7269F93E7
:104DD0008F937F936F93FF93EF939B01AC010E949E
:104DE0002526EF91FF910E9440252F913F914F91F1
:104DF0005F910C942526AA1BBB1B51E107C0AA1F7B
:104E0000BB1FA617B70710F0A61BB70B881F991F6B
:104E10005A95A9F780959095BC01CD01089597FB0F
:104E2000072E16F4009407D077FD09D00E94FB26C8
:104E300007FC05D03EF4909581959F4F089570959D
:104E400061957F4F0895EE0FFF1F0590F491E02DBF
:104E50000994F999FECF92BD81BDF89A992780B542
:104E60000895A6E1B0E044E050E00C946327A8E187
:104E7000B0E042E050E00C946327262FF999FECF72
:104E800092BD81BDF89A019700B4021639F01FBA9D
:104E900020BD0FB6F894FA9AF99A0FBE08950396BA
:104EA000272F0E943E270E943D27252F0E943E2744
:104EB000242F0C943E270196272F0E943E270C9406
:104EC0003D27DC01CB01FC01F999FECF06C0F2BD04
:104ED000E1BDF89A319600B40D9241505040B8F7B8
:064EE0000895F894FFCFD5
:104EE600010102C101C01C341DC31CFF1CC41C01EE
:104EF6003332363534C69766F4F5F6F7319490407A
:0E4F06003639D704A104680414042D044604AF
:00000001FF
